{"abi":[{"type":"constructor","inputs":[{"name":"_weth","type":"address","internalType":"address"},{"name":"_protocolFeeRecipient","type":"address","internalType":"address"}],"stateMutability":"nonpayable"},{"type":"function","name":"DOMAIN_SEPARATOR","inputs":[],"outputs":[{"name":"","type":"bytes32","internalType":"bytes32"}],"stateMutability":"view"},{"type":"function","name":"PROTOCOL_FEE_BPS","inputs":[],"outputs":[{"name":"","type":"uint256","internalType":"uint256"}],"stateMutability":"view"},{"type":"function","name":"WETH","inputs":[],"outputs":[{"name":"","type":"address","internalType":"address"}],"stateMutability":"view"},{"type":"function","name":"isUserOrderNonceInvalid","inputs":[{"name":"user","type":"address","internalType":"address"},{"name":"nonce","type":"uint256","internalType":"uint256"}],"outputs":[{"name":"","type":"bool","internalType":"bool"}],"stateMutability":"view"},{"type":"function","name":"protocolFeeRecipient","inputs":[],"outputs":[{"name":"","type":"address","internalType":"address"}],"stateMutability":"view"},{"type":"function","name":"settle","inputs":[{"name":"fill","type":"tuple","internalType":"struct OrderModel.Fill","components":[{"name":"tokenId","type":"uint256","internalType":"uint256"},{"name":"actor","type":"address","internalType":"address"}]},{"name":"order","type":"tuple","internalType":"struct OrderModel.Order","components":[{"name":"side","type":"uint8","internalType":"enum OrderModel.Side"},{"name":"isCollectionBid","type":"bool","internalType":"bool"},{"name":"collection","type":"address","internalType":"address"},{"name":"tokenId","type":"uint256","internalType":"uint256"},{"name":"currency","type":"address","internalType":"address"},{"name":"price","type":"uint256","internalType":"uint256"},{"name":"actor","type":"address","internalType":"address"},{"name":"start","type":"uint64","internalType":"uint64"},{"name":"end","type":"uint64","internalType":"uint64"},{"name":"nonce","type":"uint256","internalType":"uint256"}]},{"name":"sig","type":"tuple","internalType":"struct SignatureOps.Signature","components":[{"name":"v","type":"uint8","internalType":"uint8"},{"name":"r","type":"bytes32","internalType":"bytes32"},{"name":"s","type":"bytes32","internalType":"bytes32"}]}],"outputs":[],"stateMutability":"payable"},{"type":"event","name":"Settlement","inputs":[{"name":"orderHash","type":"bytes32","indexed":true,"internalType":"bytes32"},{"name":"collection","type":"address","indexed":true,"internalType":"address"},{"name":"tokenId","type":"uint256","indexed":true,"internalType":"uint256"},{"name":"seller","type":"address","indexed":false,"internalType":"address"},{"name":"buyer","type":"address","indexed":false,"internalType":"address"},{"name":"currency","type":"address","indexed":false,"internalType":"address"},{"name":"price","type":"uint256","indexed":false,"internalType":"uint256"}],"anonymous":false},{"type":"error","name":"CurrencyNotWhitelisted","inputs":[]},{"type":"error","name":"InvalidNonce","inputs":[]},{"type":"error","name":"InvalidOrderSide","inputs":[]},{"type":"error","name":"InvalidSParameter","inputs":[]},{"type":"error","name":"InvalidSignature","inputs":[]},{"type":"error","name":"InvalidTimestamp","inputs":[]},{"type":"error","name":"InvalidYParity","inputs":[]},{"type":"error","name":"ReentrancyGuardReentrantCall","inputs":[]},{"type":"error","name":"SafeERC20FailedOperation","inputs":[{"name":"token","type":"address","internalType":"address"}]},{"type":"error","name":"UnauthorizedFillActor","inputs":[]},{"type":"error","name":"UnsupportedCollection","inputs":[]},{"type":"error","name":"ZeroActor","inputs":[]}],"bytecode":{"object":"0x60e0604052606460c090815250348015610017575f5ffd5b50604051611e63380380611e63833981810160405281019061003991906101fd565b600161005761004c61016d60201b60201c565b61019660201b60201c565b5f01819055507f8b73c3c69bb8fe3d512ecc4cf759cc79239f7b179b0ffacaa9a75d522b39400f7f997dc85543e54e3a10f066eed263ff8d0cbf9f87e862f32fce17b110cadc23f27f044852b2a670ade5407e78fb2863c51de9fcb96542a07186fe3aeda6bb8a116d46306040516020016100d6959493929190610316565b60405160208183030381529060405280519060200120608081815250508173ffffffffffffffffffffffffffffffffffffffff1660a08173ffffffffffffffffffffffffffffffffffffffff1681525050805f5f6101000a81548173ffffffffffffffffffffffffffffffffffffffff021916908373ffffffffffffffffffffffffffffffffffffffff1602179055505050610367565b5f7f9b779b17422d0df92223018b32b4d1fa46e071723d6817e2486d003becc55f005f1b905090565b5f819050919050565b5f5ffd5b5f73ffffffffffffffffffffffffffffffffffffffff82169050919050565b5f6101cc826101a3565b9050919050565b6101dc816101c2565b81146101e6575f5ffd5b50565b5f815190506101f7816101d3565b92915050565b5f5f604083850312156102135761021261019f565b5b5f610220858286016101e9565b9250506020610231858286016101e9565b9150509250929050565b5f819050919050565b5f819050919050565b5f819050919050565b5f61027061026b6102668461023b565b61024d565b610244565b9050919050565b61028081610256565b82525050565b5f819050919050565b5f6102a96102a461029f84610286565b61024d565b610244565b9050919050565b6102b98161028f565b82525050565b5f819050919050565b5f6102e26102dd6102d8846102bf565b61024d565b610244565b9050919050565b6102f2816102c8565b82525050565b61030181610244565b82525050565b610310816101c2565b82525050565b5f60a0820190506103295f830188610277565b61033660208301876102b0565b61034360408301866102e9565b61035060608301856102f8565b61035d6080830184610307565b9695505050505050565b60805160a05160c051611abd6103a65f395f8181610461015261088101525f818161043d01526106fc01525f818161015a01526107960152611abd5ff3fe608060405260043610610054575f3560e01c80633644e515146100585780633bae3e791461008257806363fbb4d51461009e57806364df049e146100da578063ad5c464814610104578063be3782281461012e575b5f5ffd5b348015610063575f5ffd5b5061006c610158565b6040516100799190610f7c565b60405180910390f35b61009c60048036038101906100979190611001565b61017c565b005b3480156100a9575f5ffd5b506100c460048036038101906100bf91906110e0565b6103b5565b6040516100d19190611138565b60405180910390f35b3480156100e5575f5ffd5b506100ee610417565b6040516100fb9190611160565b60405180910390f35b34801561010f575f5ffd5b5061011861043b565b6040516101259190611160565b60405180910390f35b348015610139575f5ffd5b5061014261045f565b60405161014f9190611188565b60405180910390f35b7f000000000000000000000000000000000000000000000000000000000000000081565b610184610483565b82602001602081019061019791906111a1565b73ffffffffffffffffffffffffffffffffffffffff163373ffffffffffffffffffffffffffffffffffffffff16146101fb576040517fc2b1dce200000000000000000000000000000000000000000000000000000000815260040160405180910390fd5b5f6102158380360381019061021091906113d5565b6104a5565b90505f5f5f61022385610531565b925092509250610236868585858561055d565b6001805f8860c001602081019061024d91906111a1565b73ffffffffffffffffffffffffffffffffffffffff1673ffffffffffffffffffffffffffffffffffffffff1681526020019081526020015f205f88610120013581526020019081526020015f205f6101000a81548160ff0219169083151502179055505f5f5f6102dd8a8036038101906102c7919061144e565b8a8036038101906102d891906113d5565b6107d8565b9250925092506103058960800160208101906102f991906111a1565b83858c60a00135610877565b61032389604001602081019061031b91906111a1565b848484610947565b8089604001602081019061033791906111a1565b73ffffffffffffffffffffffffffffffffffffffff16887fc0ac3eb1e8caef05b202043f34de8e3173fab712167584f7a2a9f4c302bd0e9c86868e608001602081019061038491906111a1565b8f60a001356040516103999493929190611479565b60405180910390a4505050505050506103b0610a6c565b505050565b5f60015f8473ffffffffffffffffffffffffffffffffffffffff1673ffffffffffffffffffffffffffffffffffffffff1681526020019081526020015f205f8381526020019081526020015f205f9054906101000a900460ff16905092915050565b5f5f9054906101000a900473ffffffffffffffffffffffffffffffffffffffff1681565b7f000000000000000000000000000000000000000000000000000000000000000081565b7f000000000000000000000000000000000000000000000000000000000000000081565b61048b610a86565b600261049d610498610ac7565b610af0565b5f0181905550565b5f7f53a9d5a630fc6c5e55c43b1e1bc8d26f9d8cf9d950b908b6e40035aa30aa13a0825f015183602001518460400151856060015186608001518760a001518860c001518960e001518a61010001518b61012001516040516020016105149b9a9998979695949392919061153e565b604051602081830303815290604052805190602001209050919050565b5f5f5f835f016020810190610546919061161d565b846020013585604001359250925092509193909250565b5f73ffffffffffffffffffffffffffffffffffffffff168560c001602081019061058791906111a1565b73ffffffffffffffffffffffffffffffffffffffff16036105d4576040517fb1375a3d00000000000000000000000000000000000000000000000000000000815260040160405180910390fd5b60015f8660c00160208101906105ea91906111a1565b73ffffffffffffffffffffffffffffffffffffffff1673ffffffffffffffffffffffffffffffffffffffff1681526020019081526020015f205f86610120013581526020019081526020015f205f9054906101000a900460ff161561067b576040517f756688fe00000000000000000000000000000000000000000000000000000000815260040160405180910390fd5b428560e001602081019061068f9190611648565b67ffffffffffffffff16111580156106c4575042856101000160208101906106b79190611648565b67ffffffffffffffff1610155b6106fa576040517fb7d0949700000000000000000000000000000000000000000000000000000000815260040160405180910390fd5b7f000000000000000000000000000000000000000000000000000000000000000073ffffffffffffffffffffffffffffffffffffffff1685608001602081019061074491906111a1565b73ffffffffffffffffffffffffffffffffffffffff1614610791576040517f5f6063cc00000000000000000000000000000000000000000000000000000000815260040160405180910390fd5b6107d17f0000000000000000000000000000000000000000000000000000000000000000858760c00160208101906107c991906111a1565b868686610af9565b5050505050565b5f5f5f6107e484610deb565b15610803578360c0015185602001518560600151925092509250610870565b61080c84610e1d565b1561083e5784602001518460c00151856020015161082e578560600151610833565b865f01515b925092509250610870565b6040517fea5ea9e200000000000000000000000000000000000000000000000000000000815260040160405180910390fd5b9250925092565b5f8190505f6127107f0000000000000000000000000000000000000000000000000000000000000000846108ab91906116a0565b6108b5919061170e565b9050610904855f5f9054906101000a900473ffffffffffffffffffffffffffffffffffffffff16838973ffffffffffffffffffffffffffffffffffffffff16610e50909392919063ffffffff16565b8082610910919061173e565b9150506109408484838873ffffffffffffffffffffffffffffffffffffffff16610e50909392919063ffffffff16565b5050505050565b8373ffffffffffffffffffffffffffffffffffffffff166301ffc9a76380ac58cd60e01b6040518263ffffffff1660e01b815260040161098791906117ab565b602060405180830381865afa1580156109a2573d5f5f3e3d5ffd5b505050506040513d601f19601f820116820180604052508101906109c691906117d8565b6109fc576040517f0179a91700000000000000000000000000000000000000000000000000000000815260040160405180910390fd5b8373ffffffffffffffffffffffffffffffffffffffff166342842e0e8484846040518463ffffffff1660e01b8152600401610a3993929190611803565b5f604051808303815f87803b158015610a50575f5ffd5b505af1158015610a62573d5f5f3e3d5ffd5b5050505050505050565b6001610a7e610a79610ac7565b610af0565b5f0181905550565b610a8e610ea5565b15610ac5576040517f3ee5aeb500000000000000000000000000000000000000000000000000000000815260040160405180910390fd5b565b5f7f9b779b17422d0df92223018b32b4d1fa46e071723d6817e2486d003becc55f005f1b905090565b5f819050919050565b601b8360ff1614158015610b115750601c8360ff1614155b15610b48576040517f541b3bce00000000000000000000000000000000000000000000000000000000815260040160405180910390fd5b7f7fffffffffffffffffffffffffffffff5d576e7357a4501ddfe92f46681b20a0815f1c1115610ba4576040517f0658eabd00000000000000000000000000000000000000000000000000000000815260040160405180910390fd5b5f610baf8787610ec1565b90505f8573ffffffffffffffffffffffffffffffffffffffff163b1115610cf4575f8573ffffffffffffffffffffffffffffffffffffffff16631626ba7e83868689604051602001610c039392919061188c565b6040516020818303038152906040526040518363ffffffff1660e01b8152600401610c2f929190611928565b602060405180830381865afa158015610c4a573d5f5f3e3d5ffd5b505050506040513d601f19601f82011682018060405250810190610c6e9190611980565b9050631626ba7e60e01b7bffffffffffffffffffffffffffffffffffffffffffffffffffffffff1916817bffffffffffffffffffffffffffffffffffffffffffffffffffffffff191614610cee576040517f8baa579f00000000000000000000000000000000000000000000000000000000815260040160405180910390fd5b50610de2565b5f6001828686866040515f8152602001604052604051610d1794939291906119ba565b6020604051602081039080840390855afa158015610d37573d5f5f3e3d5ffd5b5050506020604051035190505f73ffffffffffffffffffffffffffffffffffffffff168173ffffffffffffffffffffffffffffffffffffffff161480610da957508573ffffffffffffffffffffffffffffffffffffffff168173ffffffffffffffffffffffffffffffffffffffff1614155b15610de0576040517f8baa579f00000000000000000000000000000000000000000000000000000000815260040160405180910390fd5b505b50505050505050565b5f5f6002811115610dff57610dfe6114bc565b5b825f01516002811115610e1557610e146114bc565b5b149050919050565b5f60016002811115610e3257610e316114bc565b5b825f01516002811115610e4857610e476114bc565b5b149050919050565b610e5e848484846001610ef3565b610e9f57836040517f5274afe7000000000000000000000000000000000000000000000000000000008152600401610e969190611160565b60405180910390fd5b50505050565b5f6002610eb8610eb3610ac7565b610af0565b5f015414905090565b5f8282604051602001610ed5929190611a51565b60405160208183030381529060405280519060200120905092915050565b5f5f6323b872dd60e01b9050604051815f525f1960601c87166004525f1960601c86166024528460445260205f60645f5f8c5af1925060015f51148316610f51578383151615610f45573d5f823e3d81fd5b5f883b113d1516831692505b806040525f606052505095945050505050565b5f819050919050565b610f7681610f64565b82525050565b5f602082019050610f8f5f830184610f6d565b92915050565b5f604051905090565b5f5ffd5b5f5ffd5b5f60408284031215610fbb57610fba610fa2565b5b81905092915050565b5f6101408284031215610fda57610fd9610fa2565b5b81905092915050565b5f60608284031215610ff857610ff7610fa2565b5b81905092915050565b5f5f5f6101e0848603121561101957611018610f9e565b5b5f61102686828701610fa6565b935050604061103786828701610fc4565b92505061018061104986828701610fe3565b9150509250925092565b5f73ffffffffffffffffffffffffffffffffffffffff82169050919050565b5f61107c82611053565b9050919050565b61108c81611072565b8114611096575f5ffd5b50565b5f813590506110a781611083565b92915050565b5f819050919050565b6110bf816110ad565b81146110c9575f5ffd5b50565b5f813590506110da816110b6565b92915050565b5f5f604083850312156110f6576110f5610f9e565b5b5f61110385828601611099565b9250506020611114858286016110cc565b9150509250929050565b5f8115159050919050565b6111328161111e565b82525050565b5f60208201905061114b5f830184611129565b92915050565b61115a81611072565b82525050565b5f6020820190506111735f830184611151565b92915050565b611182816110ad565b82525050565b5f60208201905061119b5f830184611179565b92915050565b5f602082840312156111b6576111b5610f9e565b5b5f6111c384828501611099565b91505092915050565b5f5ffd5b5f601f19601f8301169050919050565b7f4e487b71000000000000000000000000000000000000000000000000000000005f52604160045260245ffd5b611216826111d0565b810181811067ffffffffffffffff82111715611235576112346111e0565b5b80604052505050565b5f611247610f95565b9050611253828261120d565b919050565b60038110611264575f5ffd5b50565b5f8135905061127581611258565b92915050565b6112848161111e565b811461128e575f5ffd5b50565b5f8135905061129f8161127b565b92915050565b5f67ffffffffffffffff82169050919050565b6112c1816112a5565b81146112cb575f5ffd5b50565b5f813590506112dc816112b8565b92915050565b5f61014082840312156112f8576112f76111cc565b5b61130361014061123e565b90505f61131284828501611267565b5f83015250602061132584828501611291565b602083015250604061133984828501611099565b604083015250606061134d848285016110cc565b606083015250608061136184828501611099565b60808301525060a0611375848285016110cc565b60a08301525060c061138984828501611099565b60c08301525060e061139d848285016112ce565b60e0830152506101006113b2848285016112ce565b610100830152506101206113c8848285016110cc565b6101208301525092915050565b5f61014082840312156113eb576113ea610f9e565b5b5f6113f8848285016112e2565b91505092915050565b5f60408284031215611416576114156111cc565b5b611420604061123e565b90505f61142f848285016110cc565b5f83015250602061144284828501611099565b60208301525092915050565b5f6040828403121561146357611462610f9e565b5b5f61147084828501611401565b91505092915050565b5f60808201905061148c5f830187611151565b6114996020830186611151565b6114a66040830185611151565b6114b36060830184611179565b95945050505050565b7f4e487b71000000000000000000000000000000000000000000000000000000005f52602160045260245ffd5b600381106114fa576114f96114bc565b5b50565b5f81905061150a826114e9565b919050565b5f611519826114fd565b9050919050565b6115298161150f565b82525050565b611538816112a5565b82525050565b5f610160820190506115525f83018e610f6d565b61155f602083018d611520565b61156c604083018c611129565b611579606083018b611151565b611586608083018a611179565b61159360a0830189611151565b6115a060c0830188611179565b6115ad60e0830187611151565b6115bb61010083018661152f565b6115c961012083018561152f565b6115d7610140830184611179565b9c9b505050505050505050505050565b5f60ff82169050919050565b6115fc816115e7565b8114611606575f5ffd5b50565b5f81359050611617816115f3565b92915050565b5f6020828403121561163257611631610f9e565b5b5f61163f84828501611609565b91505092915050565b5f6020828403121561165d5761165c610f9e565b5b5f61166a848285016112ce565b91505092915050565b7f4e487b71000000000000000000000000000000000000000000000000000000005f52601160045260245ffd5b5f6116aa826110ad565b91506116b5836110ad565b92508282026116c3816110ad565b915082820484148315176116da576116d9611673565b5b5092915050565b7f4e487b71000000000000000000000000000000000000000000000000000000005f52601260045260245ffd5b5f611718826110ad565b9150611723836110ad565b925082611733576117326116e1565b5b828204905092915050565b5f611748826110ad565b9150611753836110ad565b925082820390508181111561176b5761176a611673565b5b92915050565b5f7fffffffff0000000000000000000000000000000000000000000000000000000082169050919050565b6117a581611771565b82525050565b5f6020820190506117be5f83018461179c565b92915050565b5f815190506117d28161127b565b92915050565b5f602082840312156117ed576117ec610f9e565b5b5f6117fa848285016117c4565b91505092915050565b5f6060820190506118165f830186611151565b6118236020830185611151565b6118306040830184611179565b949350505050565b5f819050919050565b61185261184d82610f64565b611838565b82525050565b5f8160f81b9050919050565b5f61186e82611858565b9050919050565b611886611881826115e7565b611864565b82525050565b5f6118978286611841565b6020820191506118a78285611841565b6020820191506118b78284611875565b600182019150819050949350505050565b5f81519050919050565b5f82825260208201905092915050565b8281835e5f83830152505050565b5f6118fa826118c8565b61190481856118d2565b93506119148185602086016118e2565b61191d816111d0565b840191505092915050565b5f60408201905061193b5f830185610f6d565b818103602083015261194d81846118f0565b90509392505050565b61195f81611771565b8114611969575f5ffd5b50565b5f8151905061197a81611956565b92915050565b5f6020828403121561199557611994610f9e565b5b5f6119a28482850161196c565b91505092915050565b6119b4816115e7565b82525050565b5f6080820190506119cd5f830187610f6d565b6119da60208301866119ab565b6119e76040830185610f6d565b6119f46060830184610f6d565b95945050505050565b5f81905092915050565b7f19010000000000000000000000000000000000000000000000000000000000005f82015250565b5f611a3b6002836119fd565b9150611a4682611a07565b600282019050919050565b5f611a5b82611a2f565b9150611a678285611841565b602082019150611a778284611841565b602082019150819050939250505056fea2646970667358221220c6721ef344c928ad914ee68ffbf4372de9f5ad7727f710db8c59118cce35aaac64736f6c63430008210033","linkReferences":{}},"methodIdentifiers":{"DOMAIN_SEPARATOR()":"3644e515","PROTOCOL_FEE_BPS()":"be378228","WETH()":"ad5c4648","isUserOrderNonceInvalid(address,uint256)":"63fbb4d5","protocolFeeRecipient()":"64df049e","settle((uint256,address),(uint8,bool,address,uint256,address,uint256,address,uint64,uint64,uint256),(uint8,bytes32,bytes32))":"3bae3e79"},"id":0}