{"abi":[{"type":"constructor","inputs":[{"name":"_weth","type":"address","internalType":"address"},{"name":"_protocolFeeRecipient","type":"address","internalType":"address"}],"stateMutability":"nonpayable"},{"type":"function","name":"DOMAIN_SEPARATOR","inputs":[],"outputs":[{"name":"","type":"bytes32","internalType":"bytes32"}],"stateMutability":"view"},{"type":"function","name":"PROTOCOL_FEE_BPS","inputs":[],"outputs":[{"name":"","type":"uint256","internalType":"uint256"}],"stateMutability":"view"},{"type":"function","name":"WETH","inputs":[],"outputs":[{"name":"","type":"address","internalType":"address"}],"stateMutability":"view"},{"type":"function","name":"cancelOrder","inputs":[{"name":"nonce","type":"uint256","internalType":"uint256"}],"outputs":[],"stateMutability":"nonpayable"},{"type":"function","name":"isUserOrderNonceInvalid","inputs":[{"name":"user","type":"address","internalType":"address"},{"name":"nonce","type":"uint256","internalType":"uint256"}],"outputs":[{"name":"","type":"bool","internalType":"bool"}],"stateMutability":"view"},{"type":"function","name":"protocolFeeRecipient","inputs":[],"outputs":[{"name":"","type":"address","internalType":"address"}],"stateMutability":"view"},{"type":"function","name":"settle","inputs":[{"name":"fill","type":"tuple","internalType":"struct OrderModel.Fill","components":[{"name":"tokenId","type":"uint256","internalType":"uint256"},{"name":"actor","type":"address","internalType":"address"}]},{"name":"order","type":"tuple","internalType":"struct OrderModel.Order","components":[{"name":"side","type":"uint8","internalType":"enum OrderModel.Side"},{"name":"isCollectionBid","type":"bool","internalType":"bool"},{"name":"collection","type":"address","internalType":"address"},{"name":"tokenId","type":"uint256","internalType":"uint256"},{"name":"currency","type":"address","internalType":"address"},{"name":"price","type":"uint256","internalType":"uint256"},{"name":"actor","type":"address","internalType":"address"},{"name":"start","type":"uint64","internalType":"uint64"},{"name":"end","type":"uint64","internalType":"uint64"},{"name":"nonce","type":"uint256","internalType":"uint256"}]},{"name":"sig","type":"tuple","internalType":"struct SignatureOps.Signature","components":[{"name":"v","type":"uint8","internalType":"uint8"},{"name":"r","type":"bytes32","internalType":"bytes32"},{"name":"s","type":"bytes32","internalType":"bytes32"}]}],"outputs":[],"stateMutability":"payable"},{"type":"event","name":"OrderCancelled","inputs":[{"name":"user","type":"address","indexed":true,"internalType":"address"},{"name":"nonce","type":"uint256","indexed":true,"internalType":"uint256"}],"anonymous":false},{"type":"event","name":"Settlement","inputs":[{"name":"orderHash","type":"bytes32","indexed":true,"internalType":"bytes32"},{"name":"collection","type":"address","indexed":true,"internalType":"address"},{"name":"tokenId","type":"uint256","indexed":true,"internalType":"uint256"},{"name":"seller","type":"address","indexed":false,"internalType":"address"},{"name":"buyer","type":"address","indexed":false,"internalType":"address"},{"name":"currency","type":"address","indexed":false,"internalType":"address"},{"name":"price","type":"uint256","indexed":false,"internalType":"uint256"}],"anonymous":false},{"type":"error","name":"CurrencyNotWhitelisted","inputs":[]},{"type":"error","name":"InvalidNonce","inputs":[]},{"type":"error","name":"InvalidOrderSide","inputs":[]},{"type":"error","name":"InvalidSParameter","inputs":[]},{"type":"error","name":"InvalidSignature","inputs":[]},{"type":"error","name":"InvalidTimestamp","inputs":[]},{"type":"error","name":"InvalidYParity","inputs":[]},{"type":"error","name":"ReentrancyGuardReentrantCall","inputs":[]},{"type":"error","name":"SafeERC20FailedOperation","inputs":[{"name":"token","type":"address","internalType":"address"}]},{"type":"error","name":"UnauthorizedFillActor","inputs":[]},{"type":"error","name":"UnsupportedCollection","inputs":[]},{"type":"error","name":"ZeroActor","inputs":[]}],"bytecode":{"object":"0x60e0604052606460c090815250348015610017575f5ffd5b50604051611f7b380380611f7b833981810160405281019061003991906101fd565b600161005761004c61016d60201b60201c565b61019660201b60201c565b5f01819055507f8b73c3c69bb8fe3d512ecc4cf759cc79239f7b179b0ffacaa9a75d522b39400f7f997dc85543e54e3a10f066eed263ff8d0cbf9f87e862f32fce17b110cadc23f27f044852b2a670ade5407e78fb2863c51de9fcb96542a07186fe3aeda6bb8a116d46306040516020016100d6959493929190610316565b60405160208183030381529060405280519060200120608081815250508173ffffffffffffffffffffffffffffffffffffffff1660a08173ffffffffffffffffffffffffffffffffffffffff1681525050805f5f6101000a81548173ffffffffffffffffffffffffffffffffffffffff021916908373ffffffffffffffffffffffffffffffffffffffff1602179055505050610367565b5f7f9b779b17422d0df92223018b32b4d1fa46e071723d6817e2486d003becc55f005f1b905090565b5f819050919050565b5f5ffd5b5f73ffffffffffffffffffffffffffffffffffffffff82169050919050565b5f6101cc826101a3565b9050919050565b6101dc816101c2565b81146101e6575f5ffd5b50565b5f815190506101f7816101d3565b92915050565b5f5f604083850312156102135761021261019f565b5b5f610220858286016101e9565b9250506020610231858286016101e9565b9150509250929050565b5f819050919050565b5f819050919050565b5f819050919050565b5f61027061026b6102668461023b565b61024d565b610244565b9050919050565b61028081610256565b82525050565b5f819050919050565b5f6102a96102a461029f84610286565b61024d565b610244565b9050919050565b6102b98161028f565b82525050565b5f819050919050565b5f6102e26102dd6102d8846102bf565b61024d565b610244565b9050919050565b6102f2816102c8565b82525050565b61030181610244565b82525050565b610310816101c2565b82525050565b5f60a0820190506103295f830188610277565b61033660208301876102b0565b61034360408301866102e9565b61035060608301856102f8565b61035d6080830184610307565b9695505050505050565b60805160a05160c051611bd56103a65f395f818161054e015261096e01525f818161052a01526107e901525f818161019d01526108830152611bd55ff3fe60806040526004361061006f575f3560e01c806363fbb4d51161004d57806363fbb4d5146100e157806364df049e1461011d578063ad5c464814610147578063be378228146101715761006f565b80633644e515146100735780633bae3e791461009d578063514fcac7146100b9575b5f5ffd5b34801561007e575f5ffd5b5061008761019b565b6040516100949190611069565b60405180910390f35b6100b760048036038101906100b291906110ee565b6101bf565b005b3480156100c4575f5ffd5b506100df60048036038101906100da9190611173565b6103f8565b005b3480156100ec575f5ffd5b50610107600480360381019061010291906111f8565b6104a2565b6040516101149190611250565b60405180910390f35b348015610128575f5ffd5b50610131610504565b60405161013e9190611278565b60405180910390f35b348015610152575f5ffd5b5061015b610528565b6040516101689190611278565b60405180910390f35b34801561017c575f5ffd5b5061018561054c565b60405161019291906112a0565b60405180910390f35b7f000000000000000000000000000000000000000000000000000000000000000081565b6101c7610570565b8260200160208101906101da91906112b9565b73ffffffffffffffffffffffffffffffffffffffff163373ffffffffffffffffffffffffffffffffffffffff161461023e576040517fc2b1dce200000000000000000000000000000000000000000000000000000000815260040160405180910390fd5b5f6102588380360381019061025391906114ed565b610592565b90505f5f5f6102668561061e565b925092509250610279868585858561064a565b6001805f8860c001602081019061029091906112b9565b73ffffffffffffffffffffffffffffffffffffffff1673ffffffffffffffffffffffffffffffffffffffff1681526020019081526020015f205f88610120013581526020019081526020015f205f6101000a81548160ff0219169083151502179055505f5f5f6103208a80360381019061030a9190611566565b8a80360381019061031b91906114ed565b6108c5565b92509250925061034889608001602081019061033c91906112b9565b83858c60a00135610964565b61036689604001602081019061035e91906112b9565b848484610a34565b8089604001602081019061037a91906112b9565b73ffffffffffffffffffffffffffffffffffffffff16887fc0ac3eb1e8caef05b202043f34de8e3173fab712167584f7a2a9f4c302bd0e9c86868e60800160208101906103c791906112b9565b8f60a001356040516103dc9493929190611591565b60405180910390a4505050505050506103f3610b59565b505050565b6001805f3373ffffffffffffffffffffffffffffffffffffffff1673ffffffffffffffffffffffffffffffffffffffff1681526020019081526020015f205f8381526020019081526020015f205f6101000a81548160ff021916908315150217905550803373ffffffffffffffffffffffffffffffffffffffff167fdd003742fb214507783ce004fe55f5ac14f89c6de4a7cd7487e47eb091c6226560405160405180910390a350565b5f60015f8473ffffffffffffffffffffffffffffffffffffffff1673ffffffffffffffffffffffffffffffffffffffff1681526020019081526020015f205f8381526020019081526020015f205f9054906101000a900460ff16905092915050565b5f5f9054906101000a900473ffffffffffffffffffffffffffffffffffffffff1681565b7f000000000000000000000000000000000000000000000000000000000000000081565b7f000000000000000000000000000000000000000000000000000000000000000081565b610578610b73565b600261058a610585610bb4565b610bdd565b5f0181905550565b5f7f53a9d5a630fc6c5e55c43b1e1bc8d26f9d8cf9d950b908b6e40035aa30aa13a0825f015183602001518460400151856060015186608001518760a001518860c001518960e001518a61010001518b61012001516040516020016106019b9a99989796959493929190611656565b604051602081830303815290604052805190602001209050919050565b5f5f5f835f0160208101906106339190611735565b846020013585604001359250925092509193909250565b5f73ffffffffffffffffffffffffffffffffffffffff168560c001602081019061067491906112b9565b73ffffffffffffffffffffffffffffffffffffffff16036106c1576040517fb1375a3d00000000000000000000000000000000000000000000000000000000815260040160405180910390fd5b60015f8660c00160208101906106d791906112b9565b73ffffffffffffffffffffffffffffffffffffffff1673ffffffffffffffffffffffffffffffffffffffff1681526020019081526020015f205f86610120013581526020019081526020015f205f9054906101000a900460ff1615610768576040517f756688fe00000000000000000000000000000000000000000000000000000000815260040160405180910390fd5b428560e001602081019061077c9190611760565b67ffffffffffffffff16111580156107b1575042856101000160208101906107a49190611760565b67ffffffffffffffff1610155b6107e7576040517fb7d0949700000000000000000000000000000000000000000000000000000000815260040160405180910390fd5b7f000000000000000000000000000000000000000000000000000000000000000073ffffffffffffffffffffffffffffffffffffffff1685608001602081019061083191906112b9565b73ffffffffffffffffffffffffffffffffffffffff161461087e576040517f5f6063cc00000000000000000000000000000000000000000000000000000000815260040160405180910390fd5b6108be7f0000000000000000000000000000000000000000000000000000000000000000858760c00160208101906108b691906112b9565b868686610be6565b5050505050565b5f5f5f6108d184610ed8565b156108f0578360c001518560200151856060015192509250925061095d565b6108f984610f0a565b1561092b5784602001518460c00151856020015161091b578560600151610920565b865f01515b92509250925061095d565b6040517fea5ea9e200000000000000000000000000000000000000000000000000000000815260040160405180910390fd5b9250925092565b5f8190505f6127107f00000000000000000000000000000000000000000000000000000000000000008461099891906117b8565b6109a29190611826565b90506109f1855f5f9054906101000a900473ffffffffffffffffffffffffffffffffffffffff16838973ffffffffffffffffffffffffffffffffffffffff16610f3d909392919063ffffffff16565b80826109fd9190611856565b915050610a2d8484838873ffffffffffffffffffffffffffffffffffffffff16610f3d909392919063ffffffff16565b5050505050565b8373ffffffffffffffffffffffffffffffffffffffff166301ffc9a76380ac58cd60e01b6040518263ffffffff1660e01b8152600401610a7491906118c3565b602060405180830381865afa158015610a8f573d5f5f3e3d5ffd5b505050506040513d601f19601f82011682018060405250810190610ab391906118f0565b610ae9576040517f0179a91700000000000000000000000000000000000000000000000000000000815260040160405180910390fd5b8373ffffffffffffffffffffffffffffffffffffffff166342842e0e8484846040518463ffffffff1660e01b8152600401610b269392919061191b565b5f604051808303815f87803b158015610b3d575f5ffd5b505af1158015610b4f573d5f5f3e3d5ffd5b5050505050505050565b6001610b6b610b66610bb4565b610bdd565b5f0181905550565b610b7b610f92565b15610bb2576040517f3ee5aeb500000000000000000000000000000000000000000000000000000000815260040160405180910390fd5b565b5f7f9b779b17422d0df92223018b32b4d1fa46e071723d6817e2486d003becc55f005f1b905090565b5f819050919050565b601b8360ff1614158015610bfe5750601c8360ff1614155b15610c35576040517f541b3bce00000000000000000000000000000000000000000000000000000000815260040160405180910390fd5b7f7fffffffffffffffffffffffffffffff5d576e7357a4501ddfe92f46681b20a0815f1c1115610c91576040517f0658eabd00000000000000000000000000000000000000000000000000000000815260040160405180910390fd5b5f610c9c8787610fae565b90505f8573ffffffffffffffffffffffffffffffffffffffff163b1115610de1575f8573ffffffffffffffffffffffffffffffffffffffff16631626ba7e83868689604051602001610cf0939291906119a4565b6040516020818303038152906040526040518363ffffffff1660e01b8152600401610d1c929190611a40565b602060405180830381865afa158015610d37573d5f5f3e3d5ffd5b505050506040513d601f19601f82011682018060405250810190610d5b9190611a98565b9050631626ba7e60e01b7bffffffffffffffffffffffffffffffffffffffffffffffffffffffff1916817bffffffffffffffffffffffffffffffffffffffffffffffffffffffff191614610ddb576040517f8baa579f00000000000000000000000000000000000000000000000000000000815260040160405180910390fd5b50610ecf565b5f6001828686866040515f8152602001604052604051610e049493929190611ad2565b6020604051602081039080840390855afa158015610e24573d5f5f3e3d5ffd5b5050506020604051035190505f73ffffffffffffffffffffffffffffffffffffffff168173ffffffffffffffffffffffffffffffffffffffff161480610e9657508573ffffffffffffffffffffffffffffffffffffffff168173ffffffffffffffffffffffffffffffffffffffff1614155b15610ecd576040517f8baa579f00000000000000000000000000000000000000000000000000000000815260040160405180910390fd5b505b50505050505050565b5f5f6002811115610eec57610eeb6115d4565b5b825f01516002811115610f0257610f016115d4565b5b149050919050565b5f60016002811115610f1f57610f1e6115d4565b5b825f01516002811115610f3557610f346115d4565b5b149050919050565b610f4b848484846001610fe0565b610f8c57836040517f5274afe7000000000000000000000000000000000000000000000000000000008152600401610f839190611278565b60405180910390fd5b50505050565b5f6002610fa5610fa0610bb4565b610bdd565b5f015414905090565b5f8282604051602001610fc2929190611b69565b60405160208183030381529060405280519060200120905092915050565b5f5f6323b872dd60e01b9050604051815f525f1960601c87166004525f1960601c86166024528460445260205f60645f5f8c5af1925060015f5114831661103e578383151615611032573d5f823e3d81fd5b5f883b113d1516831692505b806040525f606052505095945050505050565b5f819050919050565b61106381611051565b82525050565b5f60208201905061107c5f83018461105a565b92915050565b5f604051905090565b5f5ffd5b5f5ffd5b5f604082840312156110a8576110a761108f565b5b81905092915050565b5f61014082840312156110c7576110c661108f565b5b81905092915050565b5f606082840312156110e5576110e461108f565b5b81905092915050565b5f5f5f6101e084860312156111065761110561108b565b5b5f61111386828701611093565b9350506040611124868287016110b1565b925050610180611136868287016110d0565b9150509250925092565b5f819050919050565b61115281611140565b811461115c575f5ffd5b50565b5f8135905061116d81611149565b92915050565b5f602082840312156111885761118761108b565b5b5f6111958482850161115f565b91505092915050565b5f73ffffffffffffffffffffffffffffffffffffffff82169050919050565b5f6111c78261119e565b9050919050565b6111d7816111bd565b81146111e1575f5ffd5b50565b5f813590506111f2816111ce565b92915050565b5f5f6040838503121561120e5761120d61108b565b5b5f61121b858286016111e4565b925050602061122c8582860161115f565b9150509250929050565b5f8115159050919050565b61124a81611236565b82525050565b5f6020820190506112635f830184611241565b92915050565b611272816111bd565b82525050565b5f60208201905061128b5f830184611269565b92915050565b61129a81611140565b82525050565b5f6020820190506112b35f830184611291565b92915050565b5f602082840312156112ce576112cd61108b565b5b5f6112db848285016111e4565b91505092915050565b5f5ffd5b5f601f19601f8301169050919050565b7f4e487b71000000000000000000000000000000000000000000000000000000005f52604160045260245ffd5b61132e826112e8565b810181811067ffffffffffffffff8211171561134d5761134c6112f8565b5b80604052505050565b5f61135f611082565b905061136b8282611325565b919050565b6003811061137c575f5ffd5b50565b5f8135905061138d81611370565b92915050565b61139c81611236565b81146113a6575f5ffd5b50565b5f813590506113b781611393565b92915050565b5f67ffffffffffffffff82169050919050565b6113d9816113bd565b81146113e3575f5ffd5b50565b5f813590506113f4816113d0565b92915050565b5f61014082840312156114105761140f6112e4565b5b61141b610140611356565b90505f61142a8482850161137f565b5f83015250602061143d848285016113a9565b6020830152506040611451848285016111e4565b60408301525060606114658482850161115f565b6060830152506080611479848285016111e4565b60808301525060a061148d8482850161115f565b60a08301525060c06114a1848285016111e4565b60c08301525060e06114b5848285016113e6565b60e0830152506101006114ca848285016113e6565b610100830152506101206114e08482850161115f565b6101208301525092915050565b5f61014082840312156115035761150261108b565b5b5f611510848285016113fa565b91505092915050565b5f6040828403121561152e5761152d6112e4565b5b6115386040611356565b90505f6115478482850161115f565b5f83015250602061155a848285016111e4565b60208301525092915050565b5f6040828403121561157b5761157a61108b565b5b5f61158884828501611519565b91505092915050565b5f6080820190506115a45f830187611269565b6115b16020830186611269565b6115be6040830185611269565b6115cb6060830184611291565b95945050505050565b7f4e487b71000000000000000000000000000000000000000000000000000000005f52602160045260245ffd5b60038110611612576116116115d4565b5b50565b5f81905061162282611601565b919050565b5f61163182611615565b9050919050565b61164181611627565b82525050565b611650816113bd565b82525050565b5f6101608201905061166a5f83018e61105a565b611677602083018d611638565b611684604083018c611241565b611691606083018b611269565b61169e608083018a611291565b6116ab60a0830189611269565b6116b860c0830188611291565b6116c560e0830187611269565b6116d3610100830186611647565b6116e1610120830185611647565b6116ef610140830184611291565b9c9b505050505050505050505050565b5f60ff82169050919050565b611714816116ff565b811461171e575f5ffd5b50565b5f8135905061172f8161170b565b92915050565b5f6020828403121561174a5761174961108b565b5b5f61175784828501611721565b91505092915050565b5f602082840312156117755761177461108b565b5b5f611782848285016113e6565b91505092915050565b7f4e487b71000000000000000000000000000000000000000000000000000000005f52601160045260245ffd5b5f6117c282611140565b91506117cd83611140565b92508282026117db81611140565b915082820484148315176117f2576117f161178b565b5b5092915050565b7f4e487b71000000000000000000000000000000000000000000000000000000005f52601260045260245ffd5b5f61183082611140565b915061183b83611140565b92508261184b5761184a6117f9565b5b828204905092915050565b5f61186082611140565b915061186b83611140565b92508282039050818111156118835761188261178b565b5b92915050565b5f7fffffffff0000000000000000000000000000000000000000000000000000000082169050919050565b6118bd81611889565b82525050565b5f6020820190506118d65f8301846118b4565b92915050565b5f815190506118ea81611393565b92915050565b5f602082840312156119055761190461108b565b5b5f611912848285016118dc565b91505092915050565b5f60608201905061192e5f830186611269565b61193b6020830185611269565b6119486040830184611291565b949350505050565b5f819050919050565b61196a61196582611051565b611950565b82525050565b5f8160f81b9050919050565b5f61198682611970565b9050919050565b61199e611999826116ff565b61197c565b82525050565b5f6119af8286611959565b6020820191506119bf8285611959565b6020820191506119cf828461198d565b600182019150819050949350505050565b5f81519050919050565b5f82825260208201905092915050565b8281835e5f83830152505050565b5f611a12826119e0565b611a1c81856119ea565b9350611a2c8185602086016119fa565b611a35816112e8565b840191505092915050565b5f604082019050611a535f83018561105a565b8181036020830152611a658184611a08565b90509392505050565b611a7781611889565b8114611a81575f5ffd5b50565b5f81519050611a9281611a6e565b92915050565b5f60208284031215611aad57611aac61108b565b5b5f611aba84828501611a84565b91505092915050565b611acc816116ff565b82525050565b5f608082019050611ae55f83018761105a565b611af26020830186611ac3565b611aff604083018561105a565b611b0c606083018461105a565b95945050505050565b5f81905092915050565b7f19010000000000000000000000000000000000000000000000000000000000005f82015250565b5f611b53600283611b15565b9150611b5e82611b1f565b600282019050919050565b5f611b7382611b47565b9150611b7f8285611959565b602082019150611b8f8284611959565b602082019150819050939250505056fea2646970667358221220ce6c6fb75ea1f968ed9cd982233dfc036b919e404191f69812ae4b12ad672c6664736f6c63430008230033","linkReferences":{}},"methodIdentifiers":{"DOMAIN_SEPARATOR()":"3644e515","PROTOCOL_FEE_BPS()":"be378228","WETH()":"ad5c4648","cancelOrder(uint256)":"514fcac7","isUserOrderNonceInvalid(address,uint256)":"63fbb4d5","protocolFeeRecipient()":"64df049e","settle((uint256,address),(uint8,bool,address,uint256,address,uint256,address,uint64,uint64,uint256),(uint8,bytes32,bytes32))":"3bae3e79"},"id":0}